{
  "_format": "hh-sol-artifact-1",
  "contractName": "PotFi",
  "sourceName": "contracts/PotFi.sol",
  "abi": [
    {
      "inputs": [
        {
          "internalType": "address",
          "name": "_feeTreasury",
          "type": "address"
        },
        {
          "internalType": "address",
          "name": "_gateSigner",
          "type": "address"
        }
      ],
      "stateMutability": "nonpayable",
      "type": "constructor"
    },
    {
      "inputs": [],
      "name": "ECDSAInvalidSignature",
      "type": "error"
    },
    {
      "inputs": [
        {
          "internalType": "uint256",
          "name": "length",
          "type": "uint256"
        }
      ],
      "name": "ECDSAInvalidSignatureLength",
      "type": "error"
    },
    {
      "inputs": [
        {
          "internalType": "bytes32",
          "name": "s",
          "type": "bytes32"
        }
      ],
      "name": "ECDSAInvalidSignatureS",
      "type": "error"
    },
    {
      "inputs": [
        {
          "internalType": "address",
          "name": "owner",
          "type": "address"
        }
      ],
      "name": "OwnableInvalidOwner",
      "type": "error"
    },
    {
      "inputs": [
        {
          "internalType": "address",
          "name": "account",
          "type": "address"
        }
      ],
      "name": "OwnableUnauthorizedAccount",
      "type": "error"
    },
    {
      "inputs": [],
      "name": "ReentrancyGuardReentrantCall",
      "type": "error"
    },
    {
      "inputs": [
        {
          "internalType": "address",
          "name": "token",
          "type": "address"
        }
      ],
      "name": "SafeERC20FailedOperation",
      "type": "error"
    },
    {
      "anonymous": false,
      "inputs": [
        {
          "indexed": true,
          "internalType": "bytes32",
          "name": "id",
          "type": "bytes32"
        },
        {
          "indexed": true,
          "internalType": "address",
          "name": "to",
          "type": "address"
        },
        {
          "indexed": false,
          "internalType": "uint256",
          "name": "net",
          "type": "uint256"
        },
        {
          "indexed": false,
          "internalType": "uint256",
          "name": "fee",
          "type": "uint256"
        },
        {
          "indexed": false,
          "internalType": "uint256",
          "name": "totalClaims",
          "type": "uint256"
        }
      ],
      "name": "JackpotClaim",
      "type": "event"
    },
    {
      "anonymous": false,
      "inputs": [
        {
          "indexed": true,
          "internalType": "address",
          "name": "previousOwner",
          "type": "address"
        },
        {
          "indexed": true,
          "internalType": "address",
          "name": "newOwner",
          "type": "address"
        }
      ],
      "name": "OwnershipTransferred",
      "type": "event"
    },
    {
      "anonymous": false,
      "inputs": [
        {
          "indexed": true,
          "internalType": "bytes32",
          "name": "id",
          "type": "bytes32"
        },
        {
          "indexed": true,
          "internalType": "address",
          "name": "creator",
          "type": "address"
        },
        {
          "indexed": false,
          "internalType": "address",
          "name": "token",
          "type": "address"
        },
        {
          "indexed": false,
          "internalType": "uint256",
          "name": "amount",
          "type": "uint256"
        },
        {
          "indexed": false,
          "internalType": "uint128",
          "name": "standardClaim",
          "type": "uint128"
        },
        {
          "indexed": false,
          "internalType": "bytes32",
          "name": "postId",
          "type": "bytes32"
        },
        {
          "indexed": false,
          "internalType": "bool",
          "name": "requireLike",
          "type": "bool"
        },
        {
          "indexed": false,
          "internalType": "bool",
          "name": "requireRecast",
          "type": "bool"
        },
        {
          "indexed": false,
          "internalType": "bool",
          "name": "requireComment",
          "type": "bool"
        }
      ],
      "name": "PotCreated",
      "type": "event"
    },
    {
      "anonymous": false,
      "inputs": [
        {
          "indexed": true,
          "internalType": "bytes32",
          "name": "id",
          "type": "bytes32"
        },
        {
          "indexed": true,
          "internalType": "address",
          "name": "to",
          "type": "address"
        },
        {
          "indexed": false,
          "internalType": "uint256",
          "name": "net",
          "type": "uint256"
        },
        {
          "indexed": false,
          "internalType": "uint256",
          "name": "fee",
          "type": "uint256"
        }
      ],
      "name": "StandardClaim",
      "type": "event"
    },
    {
      "anonymous": false,
      "inputs": [
        {
          "indexed": true,
          "internalType": "bytes32",
          "name": "id",
          "type": "bytes32"
        },
        {
          "indexed": true,
          "internalType": "address",
          "name": "to",
          "type": "address"
        },
        {
          "indexed": false,
          "internalType": "uint256",
          "name": "amount",
          "type": "uint256"
        }
      ],
      "name": "Swept",
      "type": "event"
    },
    {
      "inputs": [],
      "name": "BPS",
      "outputs": [
        {
          "internalType": "uint256",
          "name": "",
          "type": "uint256"
        }
      ],
      "stateMutability": "view",
      "type": "function"
    },
    {
      "inputs": [],
      "name": "FEE_BPS",
      "outputs": [
        {
          "internalType": "uint256",
          "name": "",
          "type": "uint256"
        }
      ],
      "stateMutability": "view",
      "type": "function"
    },
    {
      "inputs": [],
      "name": "MAX_POT_USDC",
      "outputs": [
        {
          "internalType": "uint128",
          "name": "",
          "type": "uint128"
        }
      ],
      "stateMutability": "view",
      "type": "function"
    },
    {
      "inputs": [],
      "name": "MAX_WINNERS",
      "outputs": [
        {
          "internalType": "uint32",
          "name": "",
          "type": "uint32"
        }
      ],
      "stateMutability": "view",
      "type": "function"
    },
    {
      "inputs": [],
      "name": "MIN_POT_USDC",
      "outputs": [
        {
          "internalType": "uint128",
          "name": "",
          "type": "uint128"
        }
      ],
      "stateMutability": "view",
      "type": "function"
    },
    {
      "inputs": [],
      "name": "PERMIT_TYPEHASH_V1",
      "outputs": [
        {
          "internalType": "bytes32",
          "name": "",
          "type": "bytes32"
        }
      ],
      "stateMutability": "view",
      "type": "function"
    },
    {
      "inputs": [],
      "name": "PERMIT_TYPEHASH_V2",
      "outputs": [
        {
          "internalType": "bytes32",
          "name": "",
          "type": "bytes32"
        }
      ],
      "stateMutability": "view",
      "type": "function"
    },
    {
      "inputs": [],
      "name": "baseJackpotChance",
      "outputs": [
        {
          "internalType": "uint256",
          "name": "",
          "type": "uint256"
        }
      ],
      "stateMutability": "view",
      "type": "function"
    },
    {
      "inputs": [
        {
          "internalType": "bytes32",
          "name": "id",
          "type": "bytes32"
        },
        {
          "internalType": "uint256",
          "name": "deadline",
          "type": "uint256"
        },
        {
          "internalType": "bytes32",
          "name": "castId",
          "type": "bytes32"
        },
        {
          "internalType": "bytes",
          "name": "signature",
          "type": "bytes"
        }
      ],
      "name": "claim",
      "outputs": [],
      "stateMutability": "nonpayable",
      "type": "function"
    },
    {
      "inputs": [],
      "name": "claimMultiplier",
      "outputs": [
        {
          "internalType": "uint256",
          "name": "",
          "type": "uint256"
        }
      ],
      "stateMutability": "view",
      "type": "function"
    },
    {
      "inputs": [],
      "name": "cooldownSecs",
      "outputs": [
        {
          "internalType": "uint32",
          "name": "",
          "type": "uint32"
        }
      ],
      "stateMutability": "view",
      "type": "function"
    },
    {
      "inputs": [
        {
          "internalType": "address",
          "name": "token",
          "type": "address"
        },
        {
          "internalType": "uint128",
          "name": "amount",
          "type": "uint128"
        },
        {
          "internalType": "uint128",
          "name": "standardClaim",
          "type": "uint128"
        },
        {
          "internalType": "uint32",
          "name": "timeoutSecs",
          "type": "uint32"
        },
        {
          "internalType": "bytes32",
          "name": "postId",
          "type": "bytes32"
        },
        {
          "internalType": "bool",
          "name": "requireLike",
          "type": "bool"
        },
        {
          "internalType": "bool",
          "name": "requireRecast",
          "type": "bool"
        },
        {
          "internalType": "bool",
          "name": "requireComment",
          "type": "bool"
        }
      ],
      "name": "createPot",
      "outputs": [
        {
          "internalType": "bytes32",
          "name": "id",
          "type": "bytes32"
        }
      ],
      "stateMutability": "nonpayable",
      "type": "function"
    },
    {
      "inputs": [],
      "name": "feeTreasury",
      "outputs": [
        {
          "internalType": "address",
          "name": "",
          "type": "address"
        }
      ],
      "stateMutability": "view",
      "type": "function"
    },
    {
      "inputs": [],
      "name": "gateSigner",
      "outputs": [
        {
          "internalType": "address",
          "name": "",
          "type": "address"
        }
      ],
      "stateMutability": "view",
      "type": "function"
    },
    {
      "inputs": [
        {
          "internalType": "bytes32",
          "name": "id",
          "type": "bytes32"
        }
      ],
      "name": "getJackpotProbability",
      "outputs": [
        {
          "internalType": "uint256",
          "name": "",
          "type": "uint256"
        }
      ],
      "stateMutability": "view",
      "type": "function"
    },
    {
      "inputs": [
        {
          "internalType": "bytes32",
          "name": "id",
          "type": "bytes32"
        }
      ],
      "name": "getPostId",
      "outputs": [
        {
          "internalType": "bytes32",
          "name": "",
          "type": "bytes32"
        }
      ],
      "stateMutability": "view",
      "type": "function"
    },
    {
      "inputs": [
        {
          "internalType": "bytes32",
          "name": "id",
          "type": "bytes32"
        }
      ],
      "name": "getPotRequirements",
      "outputs": [
        {
          "internalType": "bytes32",
          "name": "postId",
          "type": "bytes32"
        },
        {
          "internalType": "bool",
          "name": "requireLike",
          "type": "bool"
        },
        {
          "internalType": "bool",
          "name": "requireRecast",
          "type": "bool"
        },
        {
          "internalType": "bool",
          "name": "requireComment",
          "type": "bool"
        }
      ],
      "stateMutability": "view",
      "type": "function"
    },
    {
      "inputs": [
        {
          "internalType": "bytes32",
          "name": "id",
          "type": "bytes32"
        }
      ],
      "name": "getRemainingFunds",
      "outputs": [
        {
          "internalType": "uint256",
          "name": "",
          "type": "uint256"
        }
      ],
      "stateMutability": "view",
      "type": "function"
    },
    {
      "inputs": [
        {
          "internalType": "bytes32",
          "name": "",
          "type": "bytes32"
        },
        {
          "internalType": "address",
          "name": "",
          "type": "address"
        }
      ],
      "name": "hasClaimed",
      "outputs": [
        {
          "internalType": "bool",
          "name": "",
          "type": "bool"
        }
      ],
      "stateMutability": "view",
      "type": "function"
    },
    {
      "inputs": [
        {
          "internalType": "address",
          "name": "",
          "type": "address"
        }
      ],
      "name": "lastClaimAt",
      "outputs": [
        {
          "internalType": "uint64",
          "name": "",
          "type": "uint64"
        }
      ],
      "stateMutability": "view",
      "type": "function"
    },
    {
      "inputs": [],
      "name": "maxJackpotChance",
      "outputs": [
        {
          "internalType": "uint256",
          "name": "",
          "type": "uint256"
        }
      ],
      "stateMutability": "view",
      "type": "function"
    },
    {
      "inputs": [],
      "name": "owner",
      "outputs": [
        {
          "internalType": "address",
          "name": "",
          "type": "address"
        }
      ],
      "stateMutability": "view",
      "type": "function"
    },
    {
      "inputs": [
        {
          "internalType": "bytes32",
          "name": "",
          "type": "bytes32"
        }
      ],
      "name": "pots",
      "outputs": [
        {
          "internalType": "address",
          "name": "creator",
          "type": "address"
        },
        {
          "internalType": "address",
          "name": "token",
          "type": "address"
        },
        {
          "internalType": "uint128",
          "name": "amount",
          "type": "uint128"
        },
        {
          "internalType": "uint128",
          "name": "claimedAmount",
          "type": "uint128"
        },
        {
          "internalType": "uint64",
          "name": "createdAt",
          "type": "uint64"
        },
        {
          "internalType": "uint32",
          "name": "claimed",
          "type": "uint32"
        },
        {
          "internalType": "uint32",
          "name": "timeoutSecs",
          "type": "uint32"
        },
        {
          "internalType": "uint128",
          "name": "standardClaim",
          "type": "uint128"
        },
        {
          "internalType": "bool",
          "name": "active",
          "type": "bool"
        },
        {
          "internalType": "bytes32",
          "name": "postId",
          "type": "bytes32"
        },
        {
          "internalType": "bool",
          "name": "requireLike",
          "type": "bool"
        },
        {
          "internalType": "bool",
          "name": "requireRecast",
          "type": "bool"
        },
        {
          "internalType": "bool",
          "name": "requireComment",
          "type": "bool"
        }
      ],
      "stateMutability": "view",
      "type": "function"
    },
    {
      "inputs": [],
      "name": "renounceOwnership",
      "outputs": [],
      "stateMutability": "nonpayable",
      "type": "function"
    },
    {
      "inputs": [
        {
          "internalType": "uint32",
          "name": "secs",
          "type": "uint32"
        }
      ],
      "name": "setCooldown",
      "outputs": [],
      "stateMutability": "nonpayable",
      "type": "function"
    },
    {
      "inputs": [
        {
          "internalType": "address",
          "name": "s",
          "type": "address"
        }
      ],
      "name": "setGateSigner",
      "outputs": [],
      "stateMutability": "nonpayable",
      "type": "function"
    },
    {
      "inputs": [
        {
          "internalType": "uint256",
          "name": "_baseChance",
          "type": "uint256"
        },
        {
          "internalType": "uint256",
          "name": "_claimMultiplier",
          "type": "uint256"
        },
        {
          "internalType": "uint256",
          "name": "_timeMultiplier",
          "type": "uint256"
        },
        {
          "internalType": "uint256",
          "name": "_maxChance",
          "type": "uint256"
        }
      ],
      "name": "setJackpotParams",
      "outputs": [],
      "stateMutability": "nonpayable",
      "type": "function"
    },
    {
      "inputs": [
        {
          "internalType": "address",
          "name": "token",
          "type": "address"
        }
      ],
      "name": "setUsdcToken",
      "outputs": [],
      "stateMutability": "nonpayable",
      "type": "function"
    },
    {
      "inputs": [
        {
          "internalType": "bytes32",
          "name": "id",
          "type": "bytes32"
        }
      ],
      "name": "sweep",
      "outputs": [],
      "stateMutability": "nonpayable",
      "type": "function"
    },
    {
      "inputs": [],
      "name": "timeMultiplier",
      "outputs": [
        {
          "internalType": "uint256",
          "name": "",
          "type": "uint256"
        }
      ],
      "stateMutability": "view",
      "type": "function"
    },
    {
      "inputs": [
        {
          "internalType": "address",
          "name": "newOwner",
          "type": "address"
        }
      ],
      "name": "transferOwnership",
      "outputs": [],
      "stateMutability": "nonpayable",
      "type": "function"
    },
    {
      "inputs": [],
      "name": "usdcToken",
      "outputs": [
        {
          "internalType": "address",
          "name": "",
          "type": "address"
        }
      ],
      "stateMutability": "view",
      "type": "function"
    },
    {
      "inputs": [
        {
          "internalType": "bytes32",
          "name": "",
          "type": "bytes32"
        }
      ],
      "name": "usedPermit",
      "outputs": [
        {
          "internalType": "bool",
          "name": "",
          "type": "bool"
        }
      ],
      "stateMutability": "view",
      "type": "function"
    }
  ],
  "bytecode": "0x60a0346200017957601f62001b9c38819003918201601f19168301916001600160401b038311848410176200017e57808492604094855283398101031262000179576200005a6020620000528362000194565b920162000194565b9060016000553315620001605760018054336001600160a01b031982168117909255604051936001600160a01b03939092909184167f8be0079c531659141344cd1fd0a4f28419497f9722a3daafe3b4186f6b6457e0600080a36064600255600a6003556005600455611388600555600654928082161515908162000153575b50156200012a576080526001600160c01b031990911660209190911b600160201b600160c01b031617601e17600655506040516119f29081620001aa82396080518181816106d60152610ff10152f35b60648462461bcd60e51b81526020600482015260046024820152637a65726f60e01b6044820152fd5b90508216151538620000da565b604051631e4fbdf760e01b815260006004820152602490fd5b600080fd5b634e487b7160e01b600052604160045260246000fd5b51906001600160a01b0382168203620001795756fe608080604052600436101561001357600080fd5b60003560e01c90816303822d3b1461156e5750806305743a0a1461154357806311eac8551461151a57806318769228146114f657806318d097bb1461146e57806318e38a90146114155780631e2cfc75146113da57806321bea292146113ba578063248eb4ec1461124c578063249d39e91461122f57806329a62a761461121357806330c277341461113457806334ed53c8146110ef57806346517156146110815780635018b178146110635780635d886f221461102057806360dc234014610fdb5780636ef3ade114610faa578063715018a614610f4d57806372baad5714610f2f5780637470c6a414610ade5780637e963bd514610aaf5780638da5cb5b14610a8657806392a42d1d14610a34578063aa4791d1146109f9578063bf333f2c146109dd578063cfc2ff2b146109bf578063ec18c987146109a1578063f2fde38b14610913578063f4ea7f08146108ea578063f5cc0639146101ea578063f7428a76146101cc5763f8718c5a1461018a57600080fd5b346101c75760203660031901126101c75760043563ffffffff81168091036101c7576101b4611710565b63ffffffff196006541617600655600080f35b600080fd5b346101c75760003660031901126101c7576020600554604051908152f35b346101c75760803660031901126101c7576064356044356024356001600160401b0383116101c757366023840112156101c7576001600160401b038360040135116101c7573660248460040135850101116101c75761024761173c565b8042116108bb5760405191602083017fcdf742bf5e3e154aba49d16d0729bedcf469caa3e78d930802c47ea1b6982997815233604085015260043560608501528260808501528160a085015260a084528360c08101106001600160401b0360c0860111176108a55760c0840160405283519020917f90fa84443fc1aabec624059623eca31a3a717febcf6e4524e3c6e18e5218243b60e08501523361010085015260043561012085015261014084015261016083015230610180830152466101a083015260e060c083015260c082016101c08301106001600160401b036101c0840111176108a5576101c0820160405260c082015160e08301209181600052600b60205260ff604060002054161580610891575b1561085f5750600435600052600860205260406000209261038260ff6004860154166115c3565b600435600052600960205260406000203360005260205260ff6040600020541661082f5733600052600a6020526001600160401b0360406000205416806107d7575b5061041d9033600052600a60205260406000206001600160401b0342166001600160401b03198254161790556104146103fc856117b0565b61040e3684600401356024860161163d565b9061186b565b909391936118a7565b60065460201c6001600160a01b03908116921682900361076a575b505060043560005260096020526040600020336000526020526040600020600160ff19825416179055600383015463ffffffff6001818360401c16011161070a5763ffffffff60401b600163ffffffff8360401c160160401b169063ffffffff60401b1916176003840155600052600b6020526040600020600160ff198254161790556000526040600020600160ff198254161790556104e960028201546001600160801b038160801c9116611615565b90811561073a576104f9816116af565b600382015492904360001981011161070a576127106040516020810190448252426040820152336060820152600435608082015263ffffffff8760401c1660a082015260001943014060c082015260c0815261055481611622565b5190200610928315610720575060048201805460ff19169055905b6001600160801b038216600282015460801c016001600160801b03811161070a576105b29060028301906001600160801b0382549181199060801b169116179055565b8160fa81020460fa148215171561070a576105d461271060fa84020483611615565b92600182016105ed853360018060a01b0384541661175f565b61271060fa8502046106c6575b5060028201546001600160801b0381169060801c10156106b5575b156106725760fa63ffffffff600361271093015460401c169260405194855202046020830152604082015233907fbcfef48fab838727204127b2a63cefea43ddf0dc893a3fb4e8cbcdfbaaf8e626606060043592a35b6001600055005b5060fa612710916040519384520204602082015233907fb605aaba4a198285e20b3f6dcf8e724d01e8c4574a49c9f5ef6c6a3a00e5f0a2604060043592a361066b565b60048201805460ff19169055610615565b546107049061271060fa860204907f0000000000000000000000000000000000000000000000000000000000000000906001600160a01b031661175f565b846105fa565b634e487b7160e01b600052601160045260246000fd5b60801c8082101561073357505b9061056f565b905061072d565b60405162461bcd60e51b81526020600482015260086024820152676e6f2d66756e647360c01b6044820152606490fd5b61078e6107979161040e61077d866117b0565b91369060248160040135910161163d565b909291926118a7565b6001600160a01b0316036107ac578380610438565b606460405162461bcd60e51b81526020600482015260046024820152636761746560e01b6044820152fd5b6107f26001600160401b039163ffffffff60065416906115fa565b1642106107ff57846103c4565b60405162461bcd60e51b815260206004820152600860248201526731b7b7b63237bbb760c11b6044820152606490fd5b60405162461bcd60e51b815260206004820152600860248201526737b73297b0b2323960c11b6044820152606490fd5b6101c060649162461bcd60e51b8282015260206101c482015260046101e4820152631d5cd95960e21b61020482015201fd5b508260005260ff604060002054161561035b565b634e487b7160e01b600052604160045260246000fd5b60405162461bcd60e51b8152602060048201526007602482015266195e1c1a5c995960ca1b6044820152606490fd5b346101c75760003660031901126101c757600654604051602091821c6001600160a01b03168152f35b346101c75760203660031901126101c75761092c6115ad565b610934611710565b6001600160a01b0390811690811561098857600154826bffffffffffffffffffffffff60a01b821617600155167f8be0079c531659141344cd1fd0a4f28419497f9722a3daafe3b4186f6b6457e0600080a3005b604051631e4fbdf760e01b815260006004820152602490fd5b346101c75760003660031901126101c7576020600454604051908152f35b346101c75760003660031901126101c7576020600254604051908152f35b346101c75760003660031901126101c757602060405160fa8152f35b346101c75760003660031901126101c75760206040517fcdf742bf5e3e154aba49d16d0729bedcf469caa3e78d930802c47ea1b69829978152f35b346101c75760403660031901126101c7576024356001600160a01b038116908190036101c7576004356000526009602052604060002090600052602052602060ff604060002054166040519015158152f35b346101c75760003660031901126101c7576001546040516001600160a01b039091168152602090f35b346101c75760203660031901126101c75760043560005260086020526020600560406000200154604051908152f35b346101c7576101003660031901126101c757610af86115ad565b6024356001600160801b039182821682036101c7578260443516604435036101c75763ffffffff606435169283606435036101c75760a43580151581036101c75760c4359081151582036101c75760e4359283151584036101c7576001600160a01b039685881615610f025715610ed357806044351615610e9d5760443560011b7001fffffffffffffffffffffffffffffffe6ffffffffffffffffffffffffffffffffe82169116810361070a5781871610610e6c5760843515610e355786600754168015159081610e29575b50610dd3575b6040516323b872dd60e01b60208201523360248201523060448201528187166064820152606481528060a08101106001600160401b0360a0830111176108a5578060a0610c1e9201604052888716611803565b604051602081019033825288871660408201528288166060820152826044351660808201524260a08201524460c082015260c08152610c5c81611622565b51902095866000526008602052604060002090600482019860ff8a5416610da55782546001600160a01b031990811633178455600184018054909116898316179055818416600284015560038301805463ffffffff60401b16426001600160401b03161760643560601b63ffffffff60601b161760443560801b6fffffffffffffffffffffffffffffffff191617815560209a859460069290919063ffffffff60401b198154169055600160ff19825416179055608435600582015501805462ff000089151560101b169061ff0089151560081b169060ff891515169062ffffff19161717179055604051971687521687860152604435166040850152608435606085015215156080840152151560a0830152151560c0820152817f3db2fc5272b66cb49864403866b5c911fb439b04d194a943044f1bb02fcb06e760e03393a3604051908152f35b60405162461bcd60e51b815260206004820152600660248201526565786973747360d01b6044820152606490fd5b620f4240818716101580610e18575b610bcb5760405162461bcd60e51b815260206004820152600a602482015269706f742d626f756e647360b01b6044820152606490fd5b5064174876e8008187161115610de2565b90508786161488610bc5565b60405162461bcd60e51b815260206004820152600f60248201526e1c1bdcdd12590b5c995c5d5a5c9959608a1b6044820152606490fd5b60405162461bcd60e51b81526020600482015260096024820152681d1bdbcb5cdb585b1b60ba1b6044820152606490fd5b60405162461bcd60e51b815260206004820152600e60248201526d7374616e646172642d636c61696d60901b6044820152606490fd5b60405162461bcd60e51b81526020600482015260076024820152661d1a5b595bdd5d60ca1b6044820152606490fd5b60405162461bcd60e51b81526020600482015260056024820152643a37b5b2b760d91b6044820152606490fd5b346101c75760003660031901126101c7576020604051620f42408152f35b346101c75760003660031901126101c757610f66611710565b600180546001600160a01b031981169091556000906001600160a01b03167f8be0079c531659141344cd1fd0a4f28419497f9722a3daafe3b4186f6b6457e08280a3005b346101c75760203660031901126101c757600435600052600b602052602060ff604060002054166040519015158152f35b346101c75760003660031901126101c7576040517f00000000000000000000000000000000000000000000000000000000000000006001600160a01b03168152602090f35b346101c75760203660031901126101c7576110396115ad565b611041611710565b600780546001600160a01b0319166001600160a01b0392909216919091179055005b346101c75760003660031901126101c7576020600354604051908152f35b346101c75760803660031901126101c75760643561109d611710565b61271081116110bd57600480356002556024356003556044359055600555005b60405162461bcd60e51b815260206004820152600a6024820152696d61782d6368616e636560b01b6044820152606490fd5b346101c75760203660031901126101c7576004356000526008602052602061112c6002604060002001546001600160801b038160801c9116611615565b604051908152f35b346101c75760203660031901126101c75760043560005260086020526101a0604060002060ff60018060a01b03918281541692600182015416906002810154600382015463ffffffff8560048501541692600660058601549501549560405198895260208901526001600160801b038116604089015260801c60608801526001600160401b0382166080880152808260401c1660a08801528160601c1660c087015260801c60e086015215156101008501526101208401528181161515610140840152818160081c16151561016084015260101c161515610180820152f35b346101c75760003660031901126101c757602060405160c88152f35b346101c75760003660031901126101c75760206040516127108152f35b346101c75760203660031901126101c75760043561126861173c565b806000526008602052604060002090600482019182549261128b60ff85166115c3565b81546001600160a01b03908116330361138b5760038301546112c16001600160401b03918263ffffffff8260601c1691166115fa565b164210611360578261132f60209360027f0e083373a7cffc389e5d184d0332d4e0d35a0e948d1a6a96c94c6916a44cd061960180549161130e6001600160801b0384169360801c84611615565b9960ff19169055906001600160801b0382549181199060801b169116179055565b85611346575b541693604051908152a36001600055005b61135b8683600184015416848454169061175f565b611335565b606460405162461bcd60e51b81526020600482015260046024820152631dd85a5d60e21b6044820152fd5b60405162461bcd60e51b815260206004820152600760248201526631b932b0ba37b960c91b6044820152606490fd5b346101c75760003660031901126101c757602060405164174876e8008152f35b346101c75760003660031901126101c75760206040517f90fa84443fc1aabec624059623eca31a3a717febcf6e4524e3c6e18e5218243b8152f35b346101c75760203660031901126101c75760043560005260086020526080604060002060ff6006600583015492015460405192835281811615156020840152818160081c161515604084015260101c1615156060820152f35b346101c75760203660031901126101c7576114876115ad565b61148f611710565b6001600160a01b038116156114cb5760068054640100000000600160c01b03191660209290921b640100000000600160c01b0316919091179055005b606460405162461bcd60e51b81526020600482015260046024820152637a65726f60e01b6044820152fd5b346101c75760003660031901126101c757602063ffffffff60065416604051908152f35b346101c75760003660031901126101c7576007546040516001600160a01b039091168152602090f35b346101c75760203660031901126101c7576004356000526008602052602061112c60406000206116af565b346101c75760203660031901126101c7576020906001600160a01b036115926115ad565b16600052600a82526001600160401b03604060002054168152f35b600435906001600160a01b03821682036101c757565b156115ca57565b60405162461bcd60e51b8152602060048201526008602482015267696e61637469766560c01b6044820152606490fd5b9190916001600160401b038080941691160191821161070a57565b9190820391821161070a57565b60e081019081106001600160401b038211176108a557604052565b9291926001600160401b03918281116108a55760405192601f8201601f19908116603f01168401908111848210176108a5576040528294818452818301116101c7578281602093846000960137010152565b8181029291811591840414171561070a57565b9190820180921161070a57565b6116fd906116e5610e106116f36001600160401b036116eb6003600254960154956116e560035463ffffffff8960401c1661168f565b906116a2565b941642611615565b046004549061168f565b60055480821161170b575090565b905090565b6001546001600160a01b0316330361172457565b60405163118cdaa760e01b8152336004820152602490fd5b60026000541461174d576002600055565b604051633ee5aeb560e01b8152600490fd5b60405163a9059cbb60e01b60208201526001600160a01b03909216602483015260448083019390935291815260808101916001600160401b038311828410176108a5576117ae92604052611803565b565b60405160208101917f19457468657265756d205369676e6564204d6573736167653a0a3332000000008352603c820152603c8152606081018181106001600160401b038211176108a55760405251902090565b906000602091828151910182855af11561185f576000513d61185657506001600160a01b0381163b155b6118345750565b604051635274afe760e01b81526001600160a01b039091166004820152602490fd5b6001141561182d565b6040513d6000823e3d90fd5b815191906041830361189c5761189592506020820151906060604084015193015160001a9061192c565b9192909190565b505060009160029190565b600481101561191657806118b9575050565b600181036118d35760405163f645eedf60e01b8152600490fd5b600281036118f45760405163fce698f760e01b815260048101839052602490fd5b6003146118fe5750565b602490604051906335e2f38360e21b82526004820152fd5b634e487b7160e01b600052602160045260246000fd5b91907f7fffffffffffffffffffffffffffffff5d576e7357a4501ddfe92f46681b20a084116119b057926020929160ff608095604051948552168484015260408301526060820152600092839182805260015afa156119a45780516001600160a01b0381161561199b57918190565b50809160019190565b604051903d90823e3d90fd5b5050506000916003919056fea2646970667358221220f29c559a334e06d09adb5d418b0d44f4b8c171d925bf01c5ea1d0a48ecd02a1764736f6c63430008180033",
  "linkReferences": {},
  "deployedLinkReferences": {}
}